{
  "contractName": "ERC20Token",
  "abi": [
    {
      "inputs": [
        {
          "internalType": "uint256",
          "name": "_initialAmount",
          "type": "uint256"
        },
        {
          "internalType": "string",
          "name": "_name",
          "type": "string"
        },
        {
          "internalType": "uint8",
          "name": "_decimals",
          "type": "uint8"
        },
        {
          "internalType": "string",
          "name": "_symbol",
          "type": "string"
        }
      ],
      "stateMutability": "nonpayable",
      "type": "constructor"
    },
    {
      "anonymous": false,
      "inputs": [
        {
          "indexed": true,
          "internalType": "address",
          "name": "owner",
          "type": "address"
        },
        {
          "indexed": true,
          "internalType": "address",
          "name": "spender",
          "type": "address"
        },
        {
          "indexed": false,
          "internalType": "uint256",
          "name": "value",
          "type": "uint256"
        }
      ],
      "name": "Approval",
      "type": "event"
    },
    {
      "anonymous": false,
      "inputs": [
        {
          "indexed": true,
          "internalType": "address",
          "name": "from",
          "type": "address"
        },
        {
          "indexed": true,
          "internalType": "address",
          "name": "to",
          "type": "address"
        },
        {
          "indexed": false,
          "internalType": "uint256",
          "name": "value",
          "type": "uint256"
        }
      ],
      "name": "Transfer",
      "type": "event"
    },
    {
      "inputs": [
        {
          "internalType": "address",
          "name": "",
          "type": "address"
        }
      ],
      "name": "balances",
      "outputs": [
        {
          "internalType": "uint256",
          "name": "",
          "type": "uint256"
        }
      ],
      "stateMutability": "view",
      "type": "function",
      "constant": true
    },
    {
      "inputs": [],
      "name": "decimals",
      "outputs": [
        {
          "internalType": "uint8",
          "name": "",
          "type": "uint8"
        }
      ],
      "stateMutability": "view",
      "type": "function",
      "constant": true
    },
    {
      "inputs": [],
      "name": "name",
      "outputs": [
        {
          "internalType": "string",
          "name": "",
          "type": "string"
        }
      ],
      "stateMutability": "view",
      "type": "function",
      "constant": true
    },
    {
      "inputs": [],
      "name": "symbol",
      "outputs": [
        {
          "internalType": "string",
          "name": "",
          "type": "string"
        }
      ],
      "stateMutability": "view",
      "type": "function",
      "constant": true
    },
    {
      "inputs": [],
      "name": "totSupply",
      "outputs": [
        {
          "internalType": "uint256",
          "name": "",
          "type": "uint256"
        }
      ],
      "stateMutability": "view",
      "type": "function",
      "constant": true
    },
    {
      "inputs": [
        {
          "internalType": "address",
          "name": "_recipient",
          "type": "address"
        },
        {
          "internalType": "uint256",
          "name": "_amount",
          "type": "uint256"
        }
      ],
      "name": "transfer",
      "outputs": [
        {
          "internalType": "bool",
          "name": "",
          "type": "bool"
        }
      ],
      "stateMutability": "nonpayable",
      "type": "function"
    },
    {
      "inputs": [
        {
          "internalType": "address",
          "name": "_sender",
          "type": "address"
        },
        {
          "internalType": "address",
          "name": "_recipient",
          "type": "address"
        },
        {
          "internalType": "uint256",
          "name": "_amount",
          "type": "uint256"
        }
      ],
      "name": "transferFrom",
      "outputs": [
        {
          "internalType": "bool",
          "name": "",
          "type": "bool"
        }
      ],
      "stateMutability": "nonpayable",
      "type": "function"
    },
    {
      "inputs": [
        {
          "internalType": "address",
          "name": "_account",
          "type": "address"
        }
      ],
      "name": "balanceOf",
      "outputs": [
        {
          "internalType": "uint256",
          "name": "",
          "type": "uint256"
        }
      ],
      "stateMutability": "view",
      "type": "function",
      "constant": true
    },
    {
      "inputs": [
        {
          "internalType": "address",
          "name": "_owner",
          "type": "address"
        },
        {
          "internalType": "address",
          "name": "_spender",
          "type": "address"
        }
      ],
      "name": "allowance",
      "outputs": [
        {
          "internalType": "uint256",
          "name": "",
          "type": "uint256"
        }
      ],
      "stateMutability": "view",
      "type": "function",
      "constant": true
    },
    {
      "inputs": [
        {
          "internalType": "address",
          "name": "_spender",
          "type": "address"
        },
        {
          "internalType": "uint256",
          "name": "_amount",
          "type": "uint256"
        }
      ],
      "name": "approve",
      "outputs": [
        {
          "internalType": "bool",
          "name": "",
          "type": "bool"
        }
      ],
      "stateMutability": "nonpayable",
      "type": "function"
    },
    {
      "inputs": [],
      "name": "totalSupply",
      "outputs": [
        {
          "internalType": "uint256",
          "name": "",
          "type": "uint256"
        }
      ],
      "stateMutability": "view",
      "type": "function",
      "constant": true
    }
  ],
  "bytecode": "0x60806040523480156200001157600080fd5b506040516200141d3803806200141d83398181016040528101906200003791906200039e565b836000803373ffffffffffffffffffffffffffffffffffffffff1673ffffffffffffffffffffffffffffffffffffffff1681526020019081526020016000208190555083600281905550826003908051906020019062000099929190620000d8565b508060049080519060200190620000b2929190620000d8565b5081600560006101000a81548160ff021916908360ff16021790555050505050620004b3565b828054620000e6906200047d565b90600052602060002090601f0160209004810192826200010a576000855562000156565b82601f106200012557805160ff191683800117855562000156565b8280016001018555821562000156579182015b828111156200015557825182559160200191906001019062000138565b5b50905062000165919062000169565b5090565b5b80821115620001845760008160009055506001016200016a565b5090565b6000604051905090565b600080fd5b600080fd5b6000819050919050565b620001b1816200019c565b8114620001bd57600080fd5b50565b600081519050620001d181620001a6565b92915050565b600080fd5b600080fd5b6000601f19601f8301169050919050565b7f4e487b7100000000000000000000000000000000000000000000000000000000600052604160045260246000fd5b6200022c82620001e1565b810181811067ffffffffffffffff821117156200024e576200024d620001f2565b5b80604052505050565b60006200026362000188565b905062000271828262000221565b919050565b600067ffffffffffffffff821115620002945762000293620001f2565b5b6200029f82620001e1565b9050602081019050919050565b60005b83811015620002cc578082015181840152602081019050620002af565b83811115620002dc576000848401525b50505050565b6000620002f9620002f38462000276565b62000257565b905082815260208101848484011115620003185762000317620001dc565b5b62000325848285620002ac565b509392505050565b600082601f830112620003455762000344620001d7565b5b815162000357848260208601620002e2565b91505092915050565b600060ff82169050919050565b620003788162000360565b81146200038457600080fd5b50565b60008151905062000398816200036d565b92915050565b60008060008060808587031215620003bb57620003ba62000192565b5b6000620003cb87828801620001c0565b945050602085015167ffffffffffffffff811115620003ef57620003ee62000197565b5b620003fd878288016200032d565b9350506040620004108782880162000387565b925050606085015167ffffffffffffffff81111562000434576200043362000197565b5b62000442878288016200032d565b91505092959194509250565b7f4e487b7100000000000000000000000000000000000000000000000000000000600052602260045260246000fd5b600060028204905060018216806200049657607f821691505b60208210811415620004ad57620004ac6200044e565b5b50919050565b610f5a80620004c36000396000f3fe608060405234801561001057600080fd5b50600436106100a95760003560e01c8063313ce56711610071578063313ce5671461017a57806370a082311461019857806381fbf0a5146101c857806395d89b41146101e6578063a9059cbb14610204578063dd62ed3e14610234576100a9565b806306fdde03146100ae578063095ea7b3146100cc57806318160ddd146100fc57806323b872dd1461011a57806327e235e31461014a575b600080fd5b6100b6610264565b6040516100c39190610a94565b60405180910390f35b6100e660048036038101906100e19190610b4f565b6102f2565b6040516100f39190610baa565b60405180910390f35b6101046103e4565b6040516101119190610bd4565b60405180910390f35b610134600480360381019061012f9190610bef565b6103ee565b6040516101419190610baa565b60405180910390f35b610164600480360381019061015f9190610c42565b6106d2565b6040516101719190610bd4565b60405180910390f35b6101826106ea565b60405161018f9190610c8b565b60405180910390f35b6101b260048036038101906101ad9190610c42565b6106fd565b6040516101bf9190610bd4565b60405180910390f35b6101d0610745565b6040516101dd9190610bd4565b60405180910390f35b6101ee61074b565b6040516101fb9190610a94565b60405180910390f35b61021e60048036038101906102199190610b4f565b6107d9565b60405161022b9190610baa565b60405180910390f35b61024e60048036038101906102499190610ca6565b610974565b60405161025b9190610bd4565b60405180910390f35b6003805461027190610d15565b80601f016020809104026020016040519081016040528092919081815260200182805461029d90610d15565b80156102ea5780601f106102bf576101008083540402835291602001916102ea565b820191906000526020600020905b8154815290600101906020018083116102cd57829003601f168201915b505050505081565b600081600160003373ffffffffffffffffffffffffffffffffffffffff1673ffffffffffffffffffffffffffffffffffffffff16815260200190815260200160002060008573ffffffffffffffffffffffffffffffffffffffff1673ffffffffffffffffffffffffffffffffffffffff168152602001908152602001600020819055508273ffffffffffffffffffffffffffffffffffffffff163373ffffffffffffffffffffffffffffffffffffffff167f8c5be1e5ebec7d5bd14f71427d1e84f3dd0314c0f7b2291e5b200ac8c7c3b925846040516103d29190610bd4565b60405180910390a36001905092915050565b6000600254905090565b600080600160008673ffffffffffffffffffffffffffffffffffffffff1673ffffffffffffffffffffffffffffffffffffffff16815260200190815260200160002060003373ffffffffffffffffffffffffffffffffffffffff1673ffffffffffffffffffffffffffffffffffffffff168152602001908152602001600020549050826000803373ffffffffffffffffffffffffffffffffffffffff1673ffffffffffffffffffffffffffffffffffffffff168152602001908152602001600020541180156104bc57508281115b6104fb576040517f08c379a00000000000000000000000000000000000000000000000000000000081526004016104f290610db9565b60405180910390fd5b826000808673ffffffffffffffffffffffffffffffffffffffff1673ffffffffffffffffffffffffffffffffffffffff16815260200190815260200160002060008282546105499190610e08565b92505081905550826000808773ffffffffffffffffffffffffffffffffffffffff1673ffffffffffffffffffffffffffffffffffffffff168152602001908152602001600020600082825461059e9190610e5e565b925050819055507fffffffffffffffffffffffffffffffffffffffffffffffffffffffffffffffff8110156106615782600160008773ffffffffffffffffffffffffffffffffffffffff1673ffffffffffffffffffffffffffffffffffffffff16815260200190815260200160002060003373ffffffffffffffffffffffffffffffffffffffff1673ffffffffffffffffffffffffffffffffffffffff16815260200190815260200160002060008282546106599190610e5e565b925050819055505b8373ffffffffffffffffffffffffffffffffffffffff163373ffffffffffffffffffffffffffffffffffffffff167fddf252ad1be2c89b69c2b068fc378daa952ba7f163c4a11628f55a4df523b3ef856040516106be9190610bd4565b60405180910390a360019150509392505050565b60006020528060005260406000206000915090505481565b600560009054906101000a900460ff1681565b60008060008373ffffffffffffffffffffffffffffffffffffffff1673ffffffffffffffffffffffffffffffffffffffff168152602001908152602001600020549050919050565b60025481565b6004805461075890610d15565b80601f016020809104026020016040519081016040528092919081815260200182805461078490610d15565b80156107d15780601f106107a6576101008083540402835291602001916107d1565b820191906000526020600020905b8154815290600101906020018083116107b457829003601f168201915b505050505081565b6000816000803373ffffffffffffffffffffffffffffffffffffffff1673ffffffffffffffffffffffffffffffffffffffff168152602001908152602001600020541161085b576040517f08c379a000000000000000000000000000000000000000000000000000000000815260040161085290610f04565b60405180910390fd5b816000808573ffffffffffffffffffffffffffffffffffffffff1673ffffffffffffffffffffffffffffffffffffffff16815260200190815260200160002060008282546108a99190610e08565b92505081905550816000803373ffffffffffffffffffffffffffffffffffffffff1673ffffffffffffffffffffffffffffffffffffffff16815260200190815260200160002060008282546108fe9190610e5e565b925050819055508273ffffffffffffffffffffffffffffffffffffffff163373ffffffffffffffffffffffffffffffffffffffff167fddf252ad1be2c89b69c2b068fc378daa952ba7f163c4a11628f55a4df523b3ef846040516109629190610bd4565b60405180910390a36001905092915050565b6000600160008473ffffffffffffffffffffffffffffffffffffffff1673ffffffffffffffffffffffffffffffffffffffff16815260200190815260200160002060008373ffffffffffffffffffffffffffffffffffffffff1673ffffffffffffffffffffffffffffffffffffffff16815260200190815260200160002054905092915050565b600081519050919050565b600082825260208201905092915050565b60005b83811015610a35578082015181840152602081019050610a1a565b83811115610a44576000848401525b50505050565b6000601f19601f8301169050919050565b6000610a66826109fb565b610a708185610a06565b9350610a80818560208601610a17565b610a8981610a4a565b840191505092915050565b60006020820190508181036000830152610aae8184610a5b565b905092915050565b600080fd5b600073ffffffffffffffffffffffffffffffffffffffff82169050919050565b6000610ae682610abb565b9050919050565b610af681610adb565b8114610b0157600080fd5b50565b600081359050610b1381610aed565b92915050565b6000819050919050565b610b2c81610b19565b8114610b3757600080fd5b50565b600081359050610b4981610b23565b92915050565b60008060408385031215610b6657610b65610ab6565b5b6000610b7485828601610b04565b9250506020610b8585828601610b3a565b9150509250929050565b60008115159050919050565b610ba481610b8f565b82525050565b6000602082019050610bbf6000830184610b9b565b92915050565b610bce81610b19565b82525050565b6000602082019050610be96000830184610bc5565b92915050565b600080600060608486031215610c0857610c07610ab6565b5b6000610c1686828701610b04565b9350506020610c2786828701610b04565b9250506040610c3886828701610b3a565b9150509250925092565b600060208284031215610c5857610c57610ab6565b5b6000610c6684828501610b04565b91505092915050565b600060ff82169050919050565b610c8581610c6f565b82525050565b6000602082019050610ca06000830184610c7c565b92915050565b60008060408385031215610cbd57610cbc610ab6565b5b6000610ccb85828601610b04565b9250506020610cdc85828601610b04565b9150509250929050565b7f4e487b7100000000000000000000000000000000000000000000000000000000600052602260045260246000fd5b60006002820490506001821680610d2d57607f821691505b60208210811415610d4157610d40610ce6565b5b50919050565b7f496e73756666696369656e7420616c6c6f7765642066756e647320666f72207460008201527f72616e7366657220736f757263652e0000000000000000000000000000000000602082015250565b6000610da3602f83610a06565b9150610dae82610d47565b604082019050919050565b60006020820190508181036000830152610dd281610d96565b9050919050565b7f4e487b7100000000000000000000000000000000000000000000000000000000600052601160045260246000fd5b6000610e1382610b19565b9150610e1e83610b19565b9250827fffffffffffffffffffffffffffffffffffffffffffffffffffffffffffffffff03821115610e5357610e52610dd9565b5b828201905092915050565b6000610e6982610b19565b9150610e7483610b19565b925082821015610e8757610e86610dd9565b5b828203905092915050565b7f496e73756666696369656e742066756e647320666f74207472616e736665722060008201527f736f757263652121000000000000000000000000000000000000000000000000602082015250565b6000610eee602883610a06565b9150610ef982610e92565b604082019050919050565b60006020820190508181036000830152610f1d81610ee1565b905091905056fea2646970667358221220ef8623ce23ead1ca43982ab4d989c77c1e9d2b9f8eb1c1f3537436362d05d18e64736f6c634300080a0033",
  "immutableReferences": {},
  "source": "// SPDX-License-Identifier: MIT\r\npragma solidity >=0.4.22 <0.9.0;\r\n\r\nimport \"./InterfaceERC20.sol\";\r\ncontract ERC20Token is InterfaceERC20{\r\n        uint256 constant private MAX_UINT256= 2**256-1;\r\n\r\n        mapping(address=>uint256) public balances;\r\n        mapping(address=>mapping(address => uint256)) allowed;\r\n\r\n        uint256 public totSupply;\r\n        string public name;\r\n        string public symbol;\r\n        uint8  public decimals;\r\n\r\n        constructor( uint256 _initialAmount, string memory _name,\r\n                      uint8  _decimals, string memory _symbol) public{\r\n            balances[msg.sender] = _initialAmount;\r\n            totSupply = _initialAmount;\r\n            name = _name;\r\n            symbol = _symbol;\r\n            decimals = _decimals;\r\n        }\r\n\r\n        function transfer(address _recipient, uint256 _amount) public returns (bool){\r\n            require(balances[msg.sender] > _amount,\"Insufficient funds fot transfer source!!\");\r\n            balances[_recipient] += _amount;\r\n            balances[msg.sender] -= _amount;\r\n            emit Transfer(msg.sender,_recipient, _amount);\r\n            return true;\r\n        }\r\n\r\n        function transferFrom(\r\n                        address _sender,\r\n                        address _recipient,\r\n                        uint256 _amount\r\n        ) public returns (bool){\r\n            uint256 allowanceLimit = allowed[_sender][msg.sender];\r\n            require(balances[msg.sender]>_amount && allowanceLimit > _amount, \"Insufficient allowed funds for transfer source.\");\r\n            balances[_recipient] += _amount;\r\n            balances[_sender] -= _amount;\r\n            if (allowanceLimit < MAX_UINT256) {\r\n                allowed[_sender][msg.sender] -= _amount;\r\n            }\r\n            emit Transfer(msg.sender,_recipient, _amount);\r\n            return true;\r\n        }\r\n\r\n        function balanceOf(address _account) public view returns (uint256){\r\n                return balances[_account];\r\n        }\r\n\r\n        function allowance(address _owner, address _spender) public view returns (uint256){\r\n                return allowed[_owner][_spender];\r\n        }\r\n\r\n        function approve(address _spender, uint256 _amount) public returns (bool){\r\n            allowed[msg.sender][_spender] = _amount;\r\n            emit Approval(msg.sender,_spender, _amount);\r\n            return true;\r\n        }\r\n\r\n        function totalSupply() public view returns (uint256){\r\n            return totSupply;\r\n        }\r\n}",
  "sourcePath": "D:\\Project001\\SupplyChainDApp\\contracts\\ERC20Token.sol",
  "compiler": {
    "name": "solc",
    "version": "0.8.10+commit.fc410830.Emscripten.clang"
  },
  "schemaVersion": "3.4.3",
  "updatedAt": "2021-12-07T15:11:02.041Z",
  "networkType": "ethereum",
  "devdoc": {
    "kind": "dev",
    "methods": {
      "totalSupply()": {
        "details": "Returns the amount of tokens in existence."
      }
    },
    "version": 1
  },
  "userdoc": {
    "kind": "user",
    "methods": {},
    "version": 1
  }
}