{
  "contractName": "SupplyChain",
  "abi": [
    {
      "anonymous": false,
      "inputs": [
        {
          "indexed": false,
          "internalType": "uint32",
          "name": "productId",
          "type": "uint32"
        }
      ],
      "name": "TransferOwnership",
      "type": "event"
    },
    {
      "inputs": [],
      "name": "ownership_id",
      "outputs": [
        {
          "internalType": "uint32",
          "name": "",
          "type": "uint32"
        }
      ],
      "stateMutability": "view",
      "type": "function",
      "constant": true
    },
    {
      "inputs": [
        {
          "internalType": "uint32",
          "name": "",
          "type": "uint32"
        }
      ],
      "name": "ownerships",
      "outputs": [
        {
          "internalType": "uint32",
          "name": "productId",
          "type": "uint32"
        },
        {
          "internalType": "uint32",
          "name": "ownerId",
          "type": "uint32"
        },
        {
          "internalType": "uint256",
          "name": "txnTimeStamp",
          "type": "uint256"
        },
        {
          "internalType": "address",
          "name": "productOwner",
          "type": "address"
        }
      ],
      "stateMutability": "view",
      "type": "function",
      "constant": true
    },
    {
      "inputs": [],
      "name": "participant_id",
      "outputs": [
        {
          "internalType": "uint32",
          "name": "",
          "type": "uint32"
        }
      ],
      "stateMutability": "view",
      "type": "function",
      "constant": true
    },
    {
      "inputs": [
        {
          "internalType": "uint32",
          "name": "",
          "type": "uint32"
        }
      ],
      "name": "participants",
      "outputs": [
        {
          "internalType": "string",
          "name": "userName",
          "type": "string"
        },
        {
          "internalType": "string",
          "name": "password",
          "type": "string"
        },
        {
          "internalType": "string",
          "name": "participantType",
          "type": "string"
        },
        {
          "internalType": "address",
          "name": "participantAddress",
          "type": "address"
        }
      ],
      "stateMutability": "view",
      "type": "function",
      "constant": true
    },
    {
      "inputs": [
        {
          "internalType": "uint256",
          "name": "",
          "type": "uint256"
        },
        {
          "internalType": "uint256",
          "name": "",
          "type": "uint256"
        }
      ],
      "name": "productTrack",
      "outputs": [
        {
          "internalType": "uint32",
          "name": "",
          "type": "uint32"
        }
      ],
      "stateMutability": "view",
      "type": "function",
      "constant": true
    },
    {
      "inputs": [],
      "name": "product_id",
      "outputs": [
        {
          "internalType": "uint32",
          "name": "",
          "type": "uint32"
        }
      ],
      "stateMutability": "view",
      "type": "function",
      "constant": true
    },
    {
      "inputs": [
        {
          "internalType": "uint32",
          "name": "",
          "type": "uint32"
        }
      ],
      "name": "products",
      "outputs": [
        {
          "internalType": "string",
          "name": "modelNumber",
          "type": "string"
        },
        {
          "internalType": "string",
          "name": "partNumber",
          "type": "string"
        },
        {
          "internalType": "string",
          "name": "serialNumber",
          "type": "string"
        },
        {
          "internalType": "address",
          "name": "productOwner",
          "type": "address"
        },
        {
          "internalType": "uint32",
          "name": "cost",
          "type": "uint32"
        },
        {
          "internalType": "uint256",
          "name": "mfgTimeStamp",
          "type": "uint256"
        }
      ],
      "stateMutability": "view",
      "type": "function",
      "constant": true
    },
    {
      "inputs": [
        {
          "internalType": "uint32",
          "name": "_ownerId",
          "type": "uint32"
        },
        {
          "internalType": "string",
          "name": "_modelNumber",
          "type": "string"
        },
        {
          "internalType": "string",
          "name": "_partNumber",
          "type": "string"
        },
        {
          "internalType": "string",
          "name": "_serialNumber",
          "type": "string"
        },
        {
          "internalType": "uint32",
          "name": "_cost",
          "type": "uint32"
        }
      ],
      "name": "addProduct",
      "outputs": [
        {
          "internalType": "uint32",
          "name": "",
          "type": "uint32"
        }
      ],
      "stateMutability": "nonpayable",
      "type": "function"
    },
    {
      "inputs": [
        {
          "internalType": "uint32",
          "name": "_productId",
          "type": "uint32"
        }
      ],
      "name": "getProduct",
      "outputs": [
        {
          "internalType": "string",
          "name": "",
          "type": "string"
        },
        {
          "internalType": "string",
          "name": "",
          "type": "string"
        },
        {
          "internalType": "string",
          "name": "",
          "type": "string"
        },
        {
          "internalType": "address",
          "name": "",
          "type": "address"
        },
        {
          "internalType": "uint32",
          "name": "",
          "type": "uint32"
        },
        {
          "internalType": "uint256",
          "name": "",
          "type": "uint256"
        }
      ],
      "stateMutability": "view",
      "type": "function",
      "constant": true
    },
    {
      "inputs": [
        {
          "internalType": "string",
          "name": "_name",
          "type": "string"
        },
        {
          "internalType": "string",
          "name": "_password",
          "type": "string"
        },
        {
          "internalType": "string",
          "name": "_pType",
          "type": "string"
        },
        {
          "internalType": "address",
          "name": "_pAddress",
          "type": "address"
        }
      ],
      "name": "addParticipant",
      "outputs": [
        {
          "internalType": "uint32",
          "name": "",
          "type": "uint32"
        }
      ],
      "stateMutability": "nonpayable",
      "type": "function"
    },
    {
      "inputs": [
        {
          "internalType": "uint32",
          "name": "_participantId",
          "type": "uint32"
        }
      ],
      "name": "getParticipant",
      "outputs": [
        {
          "internalType": "string",
          "name": "",
          "type": "string"
        },
        {
          "internalType": "string",
          "name": "",
          "type": "string"
        },
        {
          "internalType": "address",
          "name": "",
          "type": "address"
        }
      ],
      "stateMutability": "view",
      "type": "function",
      "constant": true
    },
    {
      "inputs": [
        {
          "internalType": "uint32",
          "name": "_user1",
          "type": "uint32"
        },
        {
          "internalType": "uint32",
          "name": "_user2",
          "type": "uint32"
        },
        {
          "internalType": "uint32",
          "name": "_productId",
          "type": "uint32"
        }
      ],
      "name": "newOwner",
      "outputs": [
        {
          "internalType": "bool",
          "name": "",
          "type": "bool"
        }
      ],
      "stateMutability": "nonpayable",
      "type": "function"
    }
  ],
  "bytecode": "0x608060405260008060006101000a81548163ffffffff021916908363ffffffff16021790555060008060046101000a81548163ffffffff021916908363ffffffff16021790555060008060086101000a81548163ffffffff021916908363ffffffff16021790555034801561007357600080fd5b506124fe806100836000396000f3fe608060405234801561001057600080fd5b50600436106100b45760003560e01c80637d0a9ac9116100715780637d0a9ac9146101c957806381e15610146101fc578063a638ac491461022f578063bf712fd614610264578063eab0a47914610299578063fc2da910146102b7576100b4565b806313169bed146100b95780632761118f146100e95780632e9d5284146101195780633b26a65d14610149578063506321041461017b5780635569da9c146101ab575b600080fd5b6100d360048036038101906100ce9190611e56565b6102d5565b6040516100e09190611f30565b60405180910390f35b61010360048036038101906100fe9190611f81565b61042c565b6040516101109190611f30565b60405180910390f35b610133600480360381019061012e9190611fed565b610475565b604051610140919061205b565b60405180910390f35b610163600480360381019061015e9190612076565b611106565b6040516101729392919061213a565b60405180910390f35b6101956004803603810190610190919061217f565b6112b7565b6040516101a29190611f30565b60405180910390f35b6101b36114b8565b6040516101c09190611f30565b60405180910390f35b6101e360048036038101906101de9190612076565b6114ce565b6040516101f3949392919061224e565b60405180910390f35b61021660048036038101906102119190612076565b6116b6565b60405161022694939291906122b7565b60405180910390f35b61024960048036038101906102449190612076565b611726565b60405161025b969594939291906122fc565b60405180910390f35b61027e60048036038101906102799190612076565b6119cd565b604051610290969594939291906122fc565b60405180910390f35b6102a1611bd1565b6040516102ae9190611f30565b60405180910390f35b6102bf611be5565b6040516102cc9190611f30565b60405180910390f35b6000806000600481819054906101000a900463ffffffff16809291906102fa906123a1565b91906101000a81548163ffffffff021916908363ffffffff160217905550905085600160008363ffffffff1663ffffffff1681526020019081526020016000206000019080519060200190610350929190611bfb565b5084600160008363ffffffff1663ffffffff1681526020019081526020016000206001019080519060200190610387929190611bfb565b5083600160008363ffffffff1663ffffffff16815260200190815260200160002060020190805190602001906103be929190611bfb565b5082600160008363ffffffff1663ffffffff16815260200190815260200160002060030160006101000a81548173ffffffffffffffffffffffffffffffffffffffff021916908373ffffffffffffffffffffffffffffffffffffffff16021790555080915050949350505050565b6004602052816000526040600020818154811061044857600080fd5b9060005260206000209060089182820401919006600402915091509054906101000a900463ffffffff1681565b600081600260008263ffffffff1663ffffffff16815260200190815260200160002060030160009054906101000a900473ffffffffffffffffffffffffffffffffffffffff1673ffffffffffffffffffffffffffffffffffffffff163373ffffffffffffffffffffffffffffffffffffffff1614610528576040517f08c379a000000000000000000000000000000000000000000000000000000000815260040161051f906123f4565b60405180910390fd5b6000600160008763ffffffff1663ffffffff16815260200190815260200160002060405180608001604052908160008201805461056490612443565b80601f016020809104026020016040519081016040528092919081815260200182805461059090612443565b80156105dd5780601f106105b2576101008083540402835291602001916105dd565b820191906000526020600020905b8154815290600101906020018083116105c057829003601f168201915b505050505081526020016001820180546105f690612443565b80601f016020809104026020016040519081016040528092919081815260200182805461062290612443565b801561066f5780601f106106445761010080835404028352916020019161066f565b820191906000526020600020905b81548152906001019060200180831161065257829003601f168201915b5050505050815260200160028201805461068890612443565b80601f01602080910402602001604051908101604052809291908181526020018280546106b490612443565b80156107015780601f106106d657610100808354040283529160200191610701565b820191906000526020600020905b8154815290600101906020018083116106e457829003601f168201915b505050505081526020016003820160009054906101000a900473ffffffffffffffffffffffffffffffffffffffff1673ffffffffffffffffffffffffffffffffffffffff1673ffffffffffffffffffffffffffffffffffffffff168152505090506000600160008763ffffffff1663ffffffff16815260200190815260200160002060405180608001604052908160008201805461079e90612443565b80601f01602080910402602001604051908101604052809291908181526020018280546107ca90612443565b80156108175780601f106107ec57610100808354040283529160200191610817565b820191906000526020600020905b8154815290600101906020018083116107fa57829003601f168201915b5050505050815260200160018201805461083090612443565b80601f016020809104026020016040519081016040528092919081815260200182805461085c90612443565b80156108a95780601f1061087e576101008083540402835291602001916108a9565b820191906000526020600020905b81548152906001019060200180831161088c57829003601f168201915b505050505081526020016002820180546108c290612443565b80601f01602080910402602001604051908101604052809291908181526020018280546108ee90612443565b801561093b5780601f106109105761010080835404028352916020019161093b565b820191906000526020600020905b81548152906001019060200180831161091e57829003601f168201915b505050505081526020016003820160009054906101000a900473ffffffffffffffffffffffffffffffffffffffff1673ffffffffffffffffffffffffffffffffffffffff1673ffffffffffffffffffffffffffffffffffffffff16815250509050600080600881819054906101000a900463ffffffff16809291906109bf906123a1565b91906101000a81548163ffffffff021916908363ffffffff16021790555090507fcec9b8e63c868f2f7f30368f1583e7aa39ae80e163d57a859fa5a90244b28ac18360400151604051602001610a1591906124b1565b60405160208183030381529060405280519060200120148015610a8157507fb77c7d6bf62fa24fc205955093030c58325cd2d3d35fb486ede7594fb99635f58260400151604051602001610a6991906124b1565b60405160208183030381529060405280519060200120145b15610c3c5785600360008363ffffffff1663ffffffff16815260200190815260200160002060000160006101000a81548163ffffffff021916908363ffffffff16021790555086600360008363ffffffff1663ffffffff16815260200190815260200160002060000160046101000a81548163ffffffff021916908363ffffffff16021790555042600360008363ffffffff1663ffffffff168152602001908152602001600020600101819055508160600151600360008363ffffffff1663ffffffff16815260200190815260200160002060020160006101000a81548173ffffffffffffffffffffffffffffffffffffffff021916908373ffffffffffffffffffffffffffffffffffffffff160217905550600460008763ffffffff1681526020019081526020016000208190806001815401808255809150506001900390600052602060002090600891828204019190066004029091909190916101000a81548163ffffffff021916908363ffffffff1602179055507fa5470ac012c6e9dc500e62b1d3de0de58db49b3ab7cfebbfb126d9abd854199b86604051610c289190611f30565b60405180910390a1600194505050506110fe565b7fb77c7d6bf62fa24fc205955093030c58325cd2d3d35fb486ede7594fb99635f58360400151604051602001610c7291906124b1565b60405160208183030381529060405280519060200120148015610cde57507fb77c7d6bf62fa24fc205955093030c58325cd2d3d35fb486ede7594fb99635f58260400151604051602001610cc691906124b1565b60405160208183030381529060405280519060200120145b15610e995785600360008363ffffffff1663ffffffff16815260200190815260200160002060000160006101000a81548163ffffffff021916908363ffffffff16021790555086600360008363ffffffff1663ffffffff16815260200190815260200160002060000160046101000a81548163ffffffff021916908363ffffffff16021790555042600360008363ffffffff1663ffffffff168152602001908152602001600020600101819055508160600151600360008363ffffffff1663ffffffff16815260200190815260200160002060020160006101000a81548173ffffffffffffffffffffffffffffffffffffffff021916908373ffffffffffffffffffffffffffffffffffffffff160217905550600460008763ffffffff1681526020019081526020016000208190806001815401808255809150506001900390600052602060002090600891828204019190066004029091909190916101000a81548163ffffffff021916908363ffffffff1602179055507fa5470ac012c6e9dc500e62b1d3de0de58db49b3ab7cfebbfb126d9abd854199b86604051610e859190611f30565b60405180910390a1600194505050506110fe565b7fb77c7d6bf62fa24fc205955093030c58325cd2d3d35fb486ede7594fb99635f58360400151604051602001610ecf91906124b1565b60405160208183030381529060405280519060200120148015610f3b57507fc0878b4b16a78e8085cba0ca02fc0924f1492924058d153153a3f286e0fd70ff8260400151604051602001610f2391906124b1565b60405160208183030381529060405280519060200120145b156110f65785600360008363ffffffff1663ffffffff16815260200190815260200160002060000160006101000a81548163ffffffff021916908363ffffffff16021790555086600360008363ffffffff1663ffffffff16815260200190815260200160002060000160046101000a81548163ffffffff021916908363ffffffff16021790555042600360008363ffffffff1663ffffffff168152602001908152602001600020600101819055508160600151600360008363ffffffff1663ffffffff16815260200190815260200160002060020160006101000a81548173ffffffffffffffffffffffffffffffffffffffff021916908373ffffffffffffffffffffffffffffffffffffffff160217905550600460008763ffffffff1681526020019081526020016000208190806001815401808255809150506001900390600052602060002090600891828204019190066004029091909190916101000a81548163ffffffff021916908363ffffffff1602179055507fa5470ac012c6e9dc500e62b1d3de0de58db49b3ab7cfebbfb126d9abd854199b866040516110e29190611f30565b60405180910390a1600194505050506110fe565b600094505050505b509392505050565b6060806000600160008563ffffffff1663ffffffff168152602001908152602001600020600001600160008663ffffffff1663ffffffff168152602001908152602001600020600201600160008763ffffffff1663ffffffff16815260200190815260200160002060030160009054906101000a900473ffffffffffffffffffffffffffffffffffffffff1682805461119e90612443565b80601f01602080910402602001604051908101604052809291908181526020018280546111ca90612443565b80156112175780601f106111ec57610100808354040283529160200191611217565b820191906000526020600020905b8154815290600101906020018083116111fa57829003601f168201915b5050505050925081805461122a90612443565b80601f016020809104026020016040519081016040528092919081815260200182805461125690612443565b80156112a35780601f10611278576101008083540402835291602001916112a3565b820191906000526020600020905b81548152906001019060200180831161128657829003601f168201915b505050505091509250925092509193909250565b60008060008081819054906101000a900463ffffffff16809291906112db906123a1565b91906101000a81548163ffffffff021916908363ffffffff160217905550905085600260008363ffffffff1663ffffffff1681526020019081526020016000206000019080519060200190611331929190611bfb565b5084600260008363ffffffff1663ffffffff1681526020019081526020016000206001019080519060200190611368929190611bfb565b5083600260008363ffffffff1663ffffffff168152602001908152602001600020600201908051906020019061139f929190611bfb565b50600160008863ffffffff1663ffffffff16815260200190815260200160002060030160009054906101000a900473ffffffffffffffffffffffffffffffffffffffff16600260008363ffffffff1663ffffffff16815260200190815260200160002060030160006101000a81548173ffffffffffffffffffffffffffffffffffffffff021916908373ffffffffffffffffffffffffffffffffffffffff16021790555082600260008363ffffffff1663ffffffff16815260200190815260200160002060030160146101000a81548163ffffffff021916908363ffffffff16021790555042600260008363ffffffff1663ffffffff168152602001908152602001600020600401819055508091505095945050505050565b600060089054906101000a900463ffffffff1681565b60016020528060005260406000206000915090508060000180546114f190612443565b80601f016020809104026020016040519081016040528092919081815260200182805461151d90612443565b801561156a5780601f1061153f5761010080835404028352916020019161156a565b820191906000526020600020905b81548152906001019060200180831161154d57829003601f168201915b50505050509080600101805461157f90612443565b80601f01602080910402602001604051908101604052809291908181526020018280546115ab90612443565b80156115f85780601f106115cd576101008083540402835291602001916115f8565b820191906000526020600020905b8154815290600101906020018083116115db57829003601f168201915b50505050509080600201805461160d90612443565b80601f016020809104026020016040519081016040528092919081815260200182805461163990612443565b80156116865780601f1061165b57610100808354040283529160200191611686565b820191906000526020600020905b81548152906001019060200180831161166957829003601f168201915b5050505050908060030160009054906101000a900473ffffffffffffffffffffffffffffffffffffffff16905084565b60036020528060005260406000206000915090508060000160009054906101000a900463ffffffff16908060000160049054906101000a900463ffffffff16908060010154908060020160009054906101000a900473ffffffffffffffffffffffffffffffffffffffff16905084565b6060806060600080600080600260008963ffffffff1663ffffffff1681526020019081526020016000206040518060c001604052908160008201805461176b90612443565b80601f016020809104026020016040519081016040528092919081815260200182805461179790612443565b80156117e45780601f106117b9576101008083540402835291602001916117e4565b820191906000526020600020905b8154815290600101906020018083116117c757829003601f168201915b505050505081526020016001820180546117fd90612443565b80601f016020809104026020016040519081016040528092919081815260200182805461182990612443565b80156118765780601f1061184b57610100808354040283529160200191611876565b820191906000526020600020905b81548152906001019060200180831161185957829003601f168201915b5050505050815260200160028201805461188f90612443565b80601f01602080910402602001604051908101604052809291908181526020018280546118bb90612443565b80156119085780601f106118dd57610100808354040283529160200191611908565b820191906000526020600020905b8154815290600101906020018083116118eb57829003601f168201915b505050505081526020016003820160009054906101000a900473ffffffffffffffffffffffffffffffffffffffff1673ffffffffffffffffffffffffffffffffffffffff1673ffffffffffffffffffffffffffffffffffffffff1681526020016003820160149054906101000a900463ffffffff1663ffffffff1663ffffffff1681526020016004820154815250509050806000015181602001518260400151836060015184608001518560a001519650965096509650965096505091939550919395565b60026020528060005260406000206000915090508060000180546119f090612443565b80601f0160208091040260200160405190810160405280929190818152602001828054611a1c90612443565b8015611a695780601f10611a3e57610100808354040283529160200191611a69565b820191906000526020600020905b815481529060010190602001808311611a4c57829003601f168201915b505050505090806001018054611a7e90612443565b80601f0160208091040260200160405190810160405280929190818152602001828054611aaa90612443565b8015611af75780601f10611acc57610100808354040283529160200191611af7565b820191906000526020600020905b815481529060010190602001808311611ada57829003601f168201915b505050505090806002018054611b0c90612443565b80601f0160208091040260200160405190810160405280929190818152602001828054611b3890612443565b8015611b855780601f10611b5a57610100808354040283529160200191611b85565b820191906000526020600020905b815481529060010190602001808311611b6857829003601f168201915b5050505050908060030160009054906101000a900473ffffffffffffffffffffffffffffffffffffffff16908060030160149054906101000a900463ffffffff16908060040154905086565b60008054906101000a900463ffffffff1681565b600060049054906101000a900463ffffffff1681565b828054611c0790612443565b90600052602060002090601f016020900481019282611c295760008555611c70565b82601f10611c4257805160ff1916838001178555611c70565b82800160010185558215611c70579182015b82811115611c6f578251825591602001919060010190611c54565b5b509050611c7d9190611c81565b5090565b5b80821115611c9a576000816000905550600101611c82565b5090565b6000604051905090565b600080fd5b600080fd5b600080fd5b600080fd5b6000601f19601f8301169050919050565b7f4e487b7100000000000000000000000000000000000000000000000000000000600052604160045260246000fd5b611d0582611cbc565b810181811067ffffffffffffffff82111715611d2457611d23611ccd565b5b80604052505050565b6000611d37611c9e565b9050611d438282611cfc565b919050565b600067ffffffffffffffff821115611d6357611d62611ccd565b5b611d6c82611cbc565b9050602081019050919050565b82818337600083830152505050565b6000611d9b611d9684611d48565b611d2d565b905082815260208101848484011115611db757611db6611cb7565b5b611dc2848285611d79565b509392505050565b600082601f830112611ddf57611dde611cb2565b5b8135611def848260208601611d88565b91505092915050565b600073ffffffffffffffffffffffffffffffffffffffff82169050919050565b6000611e2382611df8565b9050919050565b611e3381611e18565b8114611e3e57600080fd5b50565b600081359050611e5081611e2a565b92915050565b60008060008060808587031215611e7057611e6f611ca8565b5b600085013567ffffffffffffffff811115611e8e57611e8d611cad565b5b611e9a87828801611dca565b945050602085013567ffffffffffffffff811115611ebb57611eba611cad565b5b611ec787828801611dca565b935050604085013567ffffffffffffffff811115611ee857611ee7611cad565b5b611ef487828801611dca565b9250506060611f0587828801611e41565b91505092959194509250565b600063ffffffff82169050919050565b611f2a81611f11565b82525050565b6000602082019050611f456000830184611f21565b92915050565b6000819050919050565b611f5e81611f4b565b8114611f6957600080fd5b50565b600081359050611f7b81611f55565b92915050565b60008060408385031215611f9857611f97611ca8565b5b6000611fa685828601611f6c565b9250506020611fb785828601611f6c565b9150509250929050565b611fca81611f11565b8114611fd557600080fd5b50565b600081359050611fe781611fc1565b92915050565b60008060006060848603121561200657612005611ca8565b5b600061201486828701611fd8565b935050602061202586828701611fd8565b925050604061203686828701611fd8565b9150509250925092565b60008115159050919050565b61205581612040565b82525050565b6000602082019050612070600083018461204c565b92915050565b60006020828403121561208c5761208b611ca8565b5b600061209a84828501611fd8565b91505092915050565b600081519050919050565b600082825260208201905092915050565b60005b838110156120dd5780820151818401526020810190506120c2565b838111156120ec576000848401525b50505050565b60006120fd826120a3565b61210781856120ae565b93506121178185602086016120bf565b61212081611cbc565b840191505092915050565b61213481611e18565b82525050565b6000606082019050818103600083015261215481866120f2565b9050818103602083015261216881856120f2565b9050612177604083018461212b565b949350505050565b600080600080600060a0868803121561219b5761219a611ca8565b5b60006121a988828901611fd8565b955050602086013567ffffffffffffffff8111156121ca576121c9611cad565b5b6121d688828901611dca565b945050604086013567ffffffffffffffff8111156121f7576121f6611cad565b5b61220388828901611dca565b935050606086013567ffffffffffffffff81111561222457612223611cad565b5b61223088828901611dca565b925050608061224188828901611fd8565b9150509295509295909350565b6000608082019050818103600083015261226881876120f2565b9050818103602083015261227c81866120f2565b9050818103604083015261229081856120f2565b905061229f606083018461212b565b95945050505050565b6122b181611f4b565b82525050565b60006080820190506122cc6000830187611f21565b6122d96020830186611f21565b6122e660408301856122a8565b6122f3606083018461212b565b95945050505050565b600060c082019050818103600083015261231681896120f2565b9050818103602083015261232a81886120f2565b9050818103604083015261233e81876120f2565b905061234d606083018661212b565b61235a6080830185611f21565b61236760a08301846122a8565b979650505050505050565b7f4e487b7100000000000000000000000000000000000000000000000000000000600052601160045260246000fd5b60006123ac82611f11565b915063ffffffff8214156123c3576123c2612372565b5b600182019050919050565b50565b60006123de6000836120ae565b91506123e9826123ce565b600082019050919050565b6000602082019050818103600083015261240d816123d1565b9050919050565b7f4e487b7100000000000000000000000000000000000000000000000000000000600052602260045260246000fd5b6000600282049050600182168061245b57607f821691505b6020821081141561246f5761246e612414565b5b50919050565b600081905092915050565b600061248b826120a3565b6124958185612475565b93506124a58185602086016120bf565b80840191505092915050565b60006124bd8284612480565b91508190509291505056fea26469706673582212209163b9f2fd88dbfb7fbc4284f4c6d52ceddc0478973a9aae17f2e96203db3b8664736f6c634300080a0033",
  "immutableReferences": {},
  "source": "// SPDX-License-Identifier: MIT\r\npragma solidity >=0.4.22 <0.9.0;\r\n\r\ncontract SupplyChain{\r\n    //Below variable are pointers currently pointing to the updated identties\r\n    uint32 public product_id=0;// Product_Id\r\n    uint32 public participant_id=0;// Participant_Id\r\n    uint32 public ownership_id=0;// Ownership_Id\r\n\r\n    //participant can be any of these value Manufacturers, suppliers, shippers, consumers\r\n    struct participant{\r\n        string userName;\r\n        string password;\r\n        string participantType;\r\n        address participantAddress;\r\n    }\r\n    mapping(uint32=>participant) public participants;\r\n\r\n    struct product{\r\n        string modelNumber;\r\n        string partNumber;\r\n        string serialNumber;\r\n        address productOwner;\r\n        uint32 cost;\r\n        uint256 mfgTimeStamp;\r\n    }\r\n    mapping(uint32=>product) public products;\r\n\r\n    modifier OnlyOwner(uint32 _productId){\r\n        require(msg.sender == products[_productId].productOwner,\"\");\r\n        _;\r\n    }\r\n\r\n    struct ownership{\r\n        uint32 productId;\r\n        uint32 ownerId;\r\n        uint256 txnTimeStamp;\r\n        address productOwner;\r\n    }\r\n    mapping(uint32=>ownership) public ownerships;\r\n    mapping(uint=>uint32[]) public productTrack;\r\n\r\n    event TransferOwnership(uint32 productId);\r\n    function addProduct(uint32 _ownerId,\r\n                        string  memory _modelNumber,\r\n                        string memory _partNumber,\r\n                        string memory _serialNumber,\r\n                        uint32 _cost) public returns(uint32){\r\n            uint32 _productId = product_id++;\r\n            products[_productId].modelNumber = _modelNumber;\r\n            products[_productId].partNumber = _partNumber;\r\n            products[_productId].serialNumber = _serialNumber;\r\n            products[_productId].productOwner = participants[_ownerId].participantAddress;\r\n            products[_productId].cost = _cost;\r\n            products[_productId].mfgTimeStamp = block.timestamp;\r\n            \r\n            return _productId;\r\n    }\r\n    function getProduct(uint32 _productId) public view returns(\r\n                    string memory,\r\n                    string memory,\r\n                    string memory,\r\n                    address,\r\n                    uint32,\r\n                    uint256\r\n                        ){\r\n\r\n            product memory p = products[_productId];\r\n            return(\r\n                    p.modelNumber,\r\n                    p.partNumber,\r\n                    p.serialNumber,\r\n                    p.productOwner,\r\n                    p.cost,\r\n                    p.mfgTimeStamp\r\n                );\r\n    }\r\n    function addParticipant(string memory _name,\r\n        string memory _password,\r\n        string memory _pType,\r\n        address _pAddress) public returns(uint32){\r\n            uint32 userid = participant_id++;\r\n            participants[userid].userName = _name;\r\n            participants[userid].password = _password;\r\n            participants[userid].participantType = _pType;\r\n            participants[userid].participantAddress = _pAddress;\r\n            return userid;\r\n        }\r\n \r\n    function getParticipant(uint32 _participantId) public view\r\n                                 returns(string memory,\r\n                                    string memory,address){\r\n                    return(\r\n                            participants[_participantId].userName,\r\n                            participants[_participantId].participantType,\r\n                            participants[_participantId].participantAddress\r\n                        );\r\n            }\r\n\r\nfunction newOwner(uint32 _user1, uint32 _user2, uint32 _productId) public OnlyOwner(_productId) returns(bool){\r\n        participant memory p1 = participants[_user1];\r\n        participant memory p2 = participants[_user2];\r\n        uint32 ownershipId = ownership_id++;\r\n        //First Participant is Manaufacturer and Second Participant is supplier\r\n        if(keccak256(abi.encodePacked(p1.participantType)) == keccak256(\"Manufacturer\") &&\r\n                keccak256(abi.encodePacked(p2.participantType)) == keccak256(\"Supplier\"))\r\n                {\r\n                    ownerships[ownershipId].productId = _productId;\r\n                    ownerships[ownershipId].ownerId = _user2;\r\n                    ownerships[ownershipId].txnTimeStamp = block.timestamp;\r\n                    ownerships[ownershipId].productOwner = p2.participantAddress;\r\n                    productTrack[_productId].push(ownershipId);\r\n\r\n                    //event of Ownership Changed\r\n                    emit TransferOwnership(_productId);\r\n                    return true;\r\n                }\r\n         //First Participant is supplier and Second Participant is also supplier\r\n        else if(keccak256(abi.encodePacked(p1.participantType)) == keccak256(\"Supplier\") &&\r\n                keccak256(abi.encodePacked(p2.participantType)) == keccak256(\"Supplier\"))\r\n                {\r\n                    ownerships[ownershipId].productId = _productId;\r\n                    ownerships[ownershipId].ownerId = _user2;\r\n                    ownerships[ownershipId].txnTimeStamp = block.timestamp;\r\n                    ownerships[ownershipId].productOwner = p2.participantAddress;\r\n                    productTrack[_productId].push(ownershipId);\r\n\r\n                    //event of Ownership Changed\r\n                    emit TransferOwnership(_productId);\r\n                    return true;\r\n                }\r\n        //First Participant is supplier and Second Participant is also supplier\r\n        else if(keccak256(abi.encodePacked(p1.participantType)) == keccak256(\"Supplier\") &&\r\n                keccak256(abi.encodePacked(p2.participantType)) == keccak256(\"Consumer\"))\r\n                {\r\n                    ownerships[ownershipId].productId = _productId;\r\n                    ownerships[ownershipId].ownerId = _user2;\r\n                    ownerships[ownershipId].txnTimeStamp = block.timestamp;\r\n                    ownerships[ownershipId].productOwner = p2.participantAddress;\r\n                    productTrack[_productId].push(ownershipId);\r\n\r\n                    //event of Ownership Changed\r\n                    emit TransferOwnership(_productId);\r\n                    return true;\r\n                }\r\n\r\n        return false;\r\n}\r\n\r\n\r\n\r\n\r\n}",
  "sourcePath": "D:\\Project001\\SupplyChainDApp\\contracts\\SupplyChain.sol",
  "compiler": {
    "name": "solc",
    "version": "0.8.10+commit.fc410830.Emscripten.clang"
  },
  "schemaVersion": "3.4.3",
  "updatedAt": "2021-12-07T15:11:02.078Z",
  "networkType": "ethereum",
  "devdoc": {
    "kind": "dev",
    "methods": {},
    "version": 1
  },
  "userdoc": {
    "kind": "user",
    "methods": {},
    "version": 1
  }
}